{
  "contractName": "Bar",
  "abi": [
    {
      "inputs": [],
      "payable": false,
      "stateMutability": "nonpayable",
      "type": "constructor"
    },
    {
      "constant": true,
      "inputs": [],
      "name": "owner",
      "outputs": [
        {
          "internalType": "address",
          "name": "",
          "type": "address"
        }
      ],
      "payable": false,
      "stateMutability": "view",
      "type": "function"
    },
    {
      "constant": false,
      "inputs": [],
      "name": "returnAmountOfUser",
      "outputs": [
        {
          "internalType": "uint256",
          "name": "",
          "type": "uint256"
        }
      ],
      "payable": false,
      "stateMutability": "nonpayable",
      "type": "function"
    },
    {
      "constant": false,
      "inputs": [],
      "name": "getUniqueId",
      "outputs": [
        {
          "internalType": "uint256",
          "name": "",
          "type": "uint256"
        }
      ],
      "payable": false,
      "stateMutability": "nonpayable",
      "type": "function"
    },
    {
      "constant": false,
      "inputs": [
        {
          "internalType": "uint256",
          "name": "_x",
          "type": "uint256"
        },
        {
          "internalType": "address",
          "name": "_y",
          "type": "address"
        }
      ],
      "name": "add",
      "outputs": [],
      "payable": false,
      "stateMutability": "nonpayable",
      "type": "function"
    },
    {
      "constant": true,
      "inputs": [
        {
          "internalType": "uint256",
          "name": "id",
          "type": "uint256"
        },
        {
          "internalType": "uint256",
          "name": "index",
          "type": "uint256"
        }
      ],
      "name": "get",
      "outputs": [
        {
          "internalType": "address",
          "name": "",
          "type": "address"
        }
      ],
      "payable": false,
      "stateMutability": "view",
      "type": "function"
    }
  ],
  "bytecode": "0x608060405234801561001057600080fd5b5033600360006101000a81548173ffffffffffffffffffffffffffffffffffffffff021916908373ffffffffffffffffffffffffffffffffffffffff1602179055506001600080600360009054906101000a900473ffffffffffffffffffffffffffffffffffffffff1673ffffffffffffffffffffffffffffffffffffffff1673ffffffffffffffffffffffffffffffffffffffff1681526020019081526020016000208190555061046c806100c76000396000f3fe608060405234801561001057600080fd5b50600436106100575760003560e01c80632b8bbbe81461005c578063669e48aa146100aa5780638da5cb5b14610122578063ab63d7f21461016c578063c83e71641461018a575b600080fd5b6100a86004803603604081101561007257600080fd5b8101908080359060200190929190803573ffffffffffffffffffffffffffffffffffffffff1690602001909291905050506101a8565b005b6100e0600480360360408110156100c057600080fd5b81019080803590602001909291908035906020019092919050505061027a565b604051808273ffffffffffffffffffffffffffffffffffffffff1673ffffffffffffffffffffffffffffffffffffffff16815260200191505060405180910390f35b61012a6102d4565b604051808273ffffffffffffffffffffffffffffffffffffffff1673ffffffffffffffffffffffffffffffffffffffff16815260200191505060405180910390f35b6101746102fa565b6040518082815260200191505060405180910390f35b61019261042d565b6040518082815260200191505060405180910390f35b60006101b26102fa565b90506001600082815260200190815260200160002060405180604001604052808581526020018473ffffffffffffffffffffffffffffffffffffffff16815250908060018154018082558091505090600182039060005260206000209060020201600090919290919091506000820151816000015560208201518160010160006101000a81548173ffffffffffffffffffffffffffffffffffffffff021916908373ffffffffffffffffffffffffffffffffffffffff16021790555050505060009050505050565b600060016000848152602001908152602001600020828154811061029a57fe5b906000526020600020906002020160010160009054906101000a900473ffffffffffffffffffffffffffffffffffffffff16905092915050565b600360009054906101000a900473ffffffffffffffffffffffffffffffffffffffff1681565b600060016000803373ffffffffffffffffffffffffffffffffffffffff1673ffffffffffffffffffffffffffffffffffffffff168152602001908152602001600020541115610389576000803373ffffffffffffffffffffffffffffffffffffffff1673ffffffffffffffffffffffffffffffffffffffff16815260200190815260200160002054905061042a565b600061039361042d565b9050600181019050809050600181019050806000803373ffffffffffffffffffffffffffffffffffffffff1673ffffffffffffffffffffffffffffffffffffffff168152602001908152602001600020819055506000803373ffffffffffffffffffffffffffffffffffffffff1673ffffffffffffffffffffffffffffffffffffffff168152602001908152602001600020549150505b90565b600060025490509056fea265627a7a723158201b81181d00c78b8aefc1f06cfcad1290859ae680261148a99a20734e34a160f564736f6c63430005100032",
  "source": "// SPDX-License-Identifier: MIT\npragma solidity >=0.4.22 <0.9.0;\n\ncontract Bar\n\n{\n\nconstructor () public {\n    owner =msg.sender;\n    uniqueId[owner] = 1;\n\n}\nstruct Foo{\nuint256 x;\naddress y;\n}\n\nmapping (address => uint256) uniqueId;\nmapping (uint => Foo[]) foo;\nuint256 amountOfUser ;\naddress public owner;\n\nfunction returnAmountOfUser() public returns (uint256)\n{\nreturn amountOfUser;\n}\n\nfunction getUniqueId() public returns (uint256){\nif (uniqueId[msg.sender] > 1)\n{\nreturn uniqueId[msg.sender];\n}\n\nelse {\nuint256 amountUser = returnAmountOfUser();\namountUser = amountUser += 1;\nuniqueId[msg.sender] = amountUser +=1 ;\nreturn uniqueId[msg.sender];\n}\n}\n\nfunction add(uint256 _x,address _y) public {\nuint ID = getUniqueId();\nfoo[ID].push(Foo(_x,_y));\nID = 0;\n}\n\nfunction get(uint256 id, uint index) public view returns(address){\n// index refer to the order of struct in array,0 for first , 1 for seond\nreturn foo[id][index].y;\n}\n}",
  "sourcePath": "/Users/ok/Desktop/Projects/bifchain/contracts/Migrations.sol",
  "compiler": {
    "name": "solc",
    "version": "0.5.16+commit.9c3226ce.Emscripten.clang"
  },
  "schemaVersion": "3.3.4",
  "updatedAt": "2021-03-16T11:01:18.849Z",
  "devdoc": {
    "methods": {}
  },
  "userdoc": {
    "methods": {}
  }
}