{
  "contractName": "BifChain",
  "abi": [
    {
      "inputs": [],
      "payable": false,
      "stateMutability": "nonpayable",
      "type": "constructor"
    },
    {
      "constant": true,
      "inputs": [],
      "name": "owner",
      "outputs": [
        {
          "internalType": "address",
          "name": "",
          "type": "address"
        }
      ],
      "payable": false,
      "stateMutability": "view",
      "type": "function"
    },
    {
      "constant": true,
      "inputs": [],
      "name": "returnAmountOfUser",
      "outputs": [
        {
          "internalType": "uint256",
          "name": "",
          "type": "uint256"
        }
      ],
      "payable": false,
      "stateMutability": "view",
      "type": "function"
    },
    {
      "constant": false,
      "inputs": [
        {
          "internalType": "uint256",
          "name": "_x",
          "type": "uint256"
        },
        {
          "internalType": "address",
          "name": "_y",
          "type": "address"
        },
        {
          "internalType": "string",
          "name": "_z",
          "type": "string"
        }
      ],
      "name": "record",
      "outputs": [],
      "payable": false,
      "stateMutability": "nonpayable",
      "type": "function"
    },
    {
      "constant": true,
      "inputs": [
        {
          "internalType": "uint256",
          "name": "index",
          "type": "uint256"
        }
      ],
      "name": "getRecordBifNoX",
      "outputs": [
        {
          "internalType": "uint256",
          "name": "_x",
          "type": "uint256"
        }
      ],
      "payable": false,
      "stateMutability": "view",
      "type": "function"
    },
    {
      "constant": true,
      "inputs": [
        {
          "internalType": "uint256",
          "name": "index",
          "type": "uint256"
        }
      ],
      "name": "getRecordAddressY",
      "outputs": [
        {
          "internalType": "address",
          "name": "_y",
          "type": "address"
        }
      ],
      "payable": false,
      "stateMutability": "view",
      "type": "function"
    },
    {
      "constant": true,
      "inputs": [
        {
          "internalType": "uint256",
          "name": "index",
          "type": "uint256"
        }
      ],
      "name": "getRecordDescriptionZ",
      "outputs": [
        {
          "internalType": "string",
          "name": "_z",
          "type": "string"
        }
      ],
      "payable": false,
      "stateMutability": "view",
      "type": "function"
    }
  ],
  "bytecode": "0x6080604052600060035534801561001557600080fd5b5033600460006101000a81548173ffffffffffffffffffffffffffffffffffffffff021916908373ffffffffffffffffffffffffffffffffffffffff1602179055506000806000600460009054906101000a900473ffffffffffffffffffffffffffffffffffffffff1673ffffffffffffffffffffffffffffffffffffffff1673ffffffffffffffffffffffffffffffffffffffff16815260200190815260200160002081905550610716806100cc6000396000f3fe608060405234801561001057600080fd5b50600436106100625760003560e01c80635870a7f1146100675780637e9a2f561461010e5780638da5cb5b14610150578063b321a9e31461019a578063c83e71641461027f578063fc1a42ad1461029d575b600080fd5b6100936004803603602081101561007d57600080fd5b810190808035906020019092919050505061030b565b6040518080602001828103825283818151815260200191508051906020019080838360005b838110156100d35780820151818401526020810190506100b8565b50505050905090810190601f1680156101005780820380516001836020036101000a031916815260200191505b509250505060405180910390f35b61013a6004803603602081101561012457600080fd5b810190808035906020019092919050505061040b565b6040518082815260200191505060405180910390f35b610158610473565b604051808273ffffffffffffffffffffffffffffffffffffffff1673ffffffffffffffffffffffffffffffffffffffff16815260200191505060405180910390f35b61027d600480360360608110156101b057600080fd5b8101908080359060200190929190803573ffffffffffffffffffffffffffffffffffffffff169060200190929190803590602001906401000000008111156101f757600080fd5b82018360208201111561020957600080fd5b8035906020019184600183028401116401000000008311171561022b57600080fd5b91908080601f016020809104026020016040519081016040528093929190818152602001838380828437600081840152601f19601f820116905080830192505050505050509192919290505050610499565b005b6102876105aa565b6040518082815260200191505060405180910390f35b6102c9600480360360208110156102b357600080fd5b81019080803590602001909291905050506105b4565b604051808273ffffffffffffffffffffffffffffffffffffffff1673ffffffffffffffffffffffffffffffffffffffff16815260200191505060405180910390f35b6060600160003373ffffffffffffffffffffffffffffffffffffffff1673ffffffffffffffffffffffffffffffffffffffff168152602001908152602001600020828154811061035757fe5b90600052602060002090600302016002018054600181600116156101000203166002900480601f0160208091040260200160405190810160405280929190818152602001828054600181600116156101000203166002900480156103fc5780601f106103d1576101008083540402835291602001916103fc565b820191906000526020600020905b8154815290600101906020018083116103df57829003601f168201915b50505050509050809050919050565b6000600160003373ffffffffffffffffffffffffffffffffffffffff1673ffffffffffffffffffffffffffffffffffffffff168152602001908152602001600020828154811061045757fe5b9060005260206000209060030201600001549050809050919050565b600460009054906101000a900473ffffffffffffffffffffffffffffffffffffffff1681565b600160003373ffffffffffffffffffffffffffffffffffffffff1673ffffffffffffffffffffffffffffffffffffffff16815260200190815260200160002060405180606001604052808581526020018473ffffffffffffffffffffffffffffffffffffffff16815260200183815250908060018154018082558091505090600182039060005260206000209060030201600090919290919091506000820151816000015560208201518160010160006101000a81548173ffffffffffffffffffffffffffffffffffffffff021916908373ffffffffffffffffffffffffffffffffffffffff16021790555060408201518160020190805190602001906105a192919061063c565b50505050505050565b6000600354905090565b6000600160003373ffffffffffffffffffffffffffffffffffffffff1673ffffffffffffffffffffffffffffffffffffffff168152602001908152602001600020828154811061060057fe5b906000526020600020906003020160010160009054906101000a900473ffffffffffffffffffffffffffffffffffffffff169050809050919050565b828054600181600116156101000203166002900490600052602060002090601f016020900481019282601f1061067d57805160ff19168380011785556106ab565b828001600101855582156106ab579182015b828111156106aa57825182559160200191906001019061068f565b5b5090506106b891906106bc565b5090565b6106de91905b808211156106da5760008160009055506001016106c2565b5090565b9056fea265627a7a7231582020bca2f010d266db2650439be421652f861e204dd88fa06852fe5e1c497df16a64736f6c63430005100032",
  "source": "pragma solidity >=0.4.22 <0.9.0;\n\n\ncontract BifChain {\n\n    mapping(address=> uint256) uniqueId;\n    mapping(address => Item[]) List; \n    mapping(address=> bool) registered;\n    uint256 amountOfUser = 0;\n    address public owner;\n\n    constructor() public {\n        owner = msg.sender;\n        uniqueId[owner] = 0;\n    }\n\n    struct Item {\n        uint256 _bifNo;\n        address _address;\n        string _description;\n       \n    }\n\n    function returnAmountOfUser() public view returns (uint256) {\n        return amountOfUser;\n    } \n\n    // function register() public returns(bool)\n    // {\n    //     require(!registered[msg.sender],\"Registered.\");\n    //     amountOfUser = amountOfUser+=1;\n    //     uniqueId[msg.sender] = amountOfUser;\n    //     registered[msg.sender] = true;\n    //     return registered[msg.sender];\n    // }\n\n    // function getUniqueId() public view returns(uint256) {\n    //     return uniqueId[msg.sender];\n    // }\n\n    function record(uint256 _x,address _y,string memory _z) public {\n\n        \n        List[msg.sender].push(Item(_x,_y,_z));\n    }\n\n     function getRecordBifNoX(uint256 index) public view returns (uint256 _x){\n        \n        _x = List[msg.sender][index]._bifNo;\n        return _x;\n    }\n\n    function getRecordAddressY(uint256 index) public view returns (address _y){\n       \n        _y = List[msg.sender][index]._address;\n        return _y;\n    }\n\n    function getRecordDescriptionZ(uint256 index) public view returns (string memory _z){\n        \n        _z = List[msg.sender][index]._description;\n        return _z;\n    }\n\n    \n\n    \n       \n\n\n\n\n}",
  "sourcePath": "/Users/ok/Desktop/Projects/bifchain/contracts/BifChain.sol",
  "compiler": {
    "name": "solc",
    "version": "0.5.16+commit.9c3226ce.Emscripten.clang"
  },
  "schemaVersion": "3.3.4",
  "updatedAt": "2021-03-16T12:57:22.061Z",
  "networkType": "ethereum",
  "devdoc": {
    "methods": {}
  },
  "userdoc": {
    "methods": {}
  }
}