{
  "contractName": "BifChain",
  "abi": [
    {
      "inputs": [],
      "payable": false,
      "stateMutability": "nonpayable",
      "type": "constructor"
    },
    {
      "constant": true,
      "inputs": [],
      "name": "owner",
      "outputs": [
        {
          "internalType": "address",
          "name": "",
          "type": "address"
        }
      ],
      "payable": false,
      "stateMutability": "view",
      "type": "function"
    },
    {
      "constant": true,
      "inputs": [],
      "name": "returnAmountOfUser",
      "outputs": [
        {
          "internalType": "uint256",
          "name": "",
          "type": "uint256"
        }
      ],
      "payable": false,
      "stateMutability": "view",
      "type": "function"
    },
    {
      "constant": false,
      "inputs": [
        {
          "internalType": "uint256",
          "name": "_x",
          "type": "uint256"
        },
        {
          "internalType": "address",
          "name": "_y",
          "type": "address"
        },
        {
          "internalType": "string",
          "name": "_z",
          "type": "string"
        }
      ],
      "name": "record",
      "outputs": [],
      "payable": false,
      "stateMutability": "nonpayable",
      "type": "function"
    },
    {
      "constant": true,
      "inputs": [
        {
          "internalType": "uint256",
          "name": "index",
          "type": "uint256"
        }
      ],
      "name": "getRecordBifNoX",
      "outputs": [
        {
          "internalType": "uint256",
          "name": "_x",
          "type": "uint256"
        }
      ],
      "payable": false,
      "stateMutability": "view",
      "type": "function"
    },
    {
      "constant": true,
      "inputs": [
        {
          "internalType": "uint256",
          "name": "index",
          "type": "uint256"
        }
      ],
      "name": "getRecordAddressY",
      "outputs": [
        {
          "internalType": "address",
          "name": "_y",
          "type": "address"
        }
      ],
      "payable": false,
      "stateMutability": "view",
      "type": "function"
    },
    {
      "constant": true,
      "inputs": [
        {
          "internalType": "uint256",
          "name": "index",
          "type": "uint256"
        }
      ],
      "name": "getRecordDescriptionZ",
      "outputs": [
        {
          "internalType": "string",
          "name": "_z",
          "type": "string"
        }
      ],
      "payable": false,
      "stateMutability": "view",
      "type": "function"
    },
    {
      "constant": true,
      "inputs": [
        {
          "internalType": "uint256",
          "name": "index",
          "type": "uint256"
        }
      ],
      "name": "getRecordTimeStampT",
      "outputs": [
        {
          "internalType": "uint256",
          "name": "_t",
          "type": "uint256"
        }
      ],
      "payable": false,
      "stateMutability": "view",
      "type": "function"
    }
  ],
  "bytecode": "0x6080604052600060035534801561001557600080fd5b5033600460006101000a81548173ffffffffffffffffffffffffffffffffffffffff021916908373ffffffffffffffffffffffffffffffffffffffff1602179055506000806000600460009054906101000a900473ffffffffffffffffffffffffffffffffffffffff1673ffffffffffffffffffffffffffffffffffffffff1673ffffffffffffffffffffffffffffffffffffffff168152602001908152602001600020819055506107eb806100cc6000396000f3fe608060405234801561001057600080fd5b506004361061007d5760003560e01c80638da5cb5b1161005b5780638da5cb5b146101ad578063b321a9e3146101f7578063c83e7164146102dc578063fc1a42ad146102fa5761007d565b80635870a7f11461008257806368f68123146101295780637e9a2f561461016b575b600080fd5b6100ae6004803603602081101561009857600080fd5b8101908080359060200190929190505050610368565b6040518080602001828103825283818151815260200191508051906020019080838360005b838110156100ee5780820151818401526020810190506100d3565b50505050905090810190601f16801561011b5780820380516001836020036101000a031916815260200191505b509250505060405180910390f35b6101556004803603602081101561013f57600080fd5b8101908080359060200190929190505050610468565b6040518082815260200191505060405180910390f35b6101976004803603602081101561018157600080fd5b81019080803590602001909291905050506104d0565b6040518082815260200191505060405180910390f35b6101b5610538565b604051808273ffffffffffffffffffffffffffffffffffffffff1673ffffffffffffffffffffffffffffffffffffffff16815260200191505060405180910390f35b6102da6004803603606081101561020d57600080fd5b8101908080359060200190929190803573ffffffffffffffffffffffffffffffffffffffff1690602001909291908035906020019064010000000081111561025457600080fd5b82018360208201111561026657600080fd5b8035906020019184600183028401116401000000008311171561028857600080fd5b91908080601f016020809104026020016040519081016040528093929190818152602001838380828437600081840152601f19601f82011690508083019250505050505050919291929050505061055e565b005b6102e461067f565b6040518082815260200191505060405180910390f35b6103266004803603602081101561031057600080fd5b8101908080359060200190929190505050610689565b604051808273ffffffffffffffffffffffffffffffffffffffff1673ffffffffffffffffffffffffffffffffffffffff16815260200191505060405180910390f35b6060600160003373ffffffffffffffffffffffffffffffffffffffff1673ffffffffffffffffffffffffffffffffffffffff16815260200190815260200160002082815481106103b457fe5b90600052602060002090600402016002018054600181600116156101000203166002900480601f0160208091040260200160405190810160405280929190818152602001828054600181600116156101000203166002900480156104595780601f1061042e57610100808354040283529160200191610459565b820191906000526020600020905b81548152906001019060200180831161043c57829003601f168201915b50505050509050809050919050565b6000600160003373ffffffffffffffffffffffffffffffffffffffff1673ffffffffffffffffffffffffffffffffffffffff16815260200190815260200160002082815481106104b457fe5b9060005260206000209060040201600301549050809050919050565b6000600160003373ffffffffffffffffffffffffffffffffffffffff1673ffffffffffffffffffffffffffffffffffffffff168152602001908152602001600020828154811061051c57fe5b9060005260206000209060040201600001549050809050919050565b600460009054906101000a900473ffffffffffffffffffffffffffffffffffffffff1681565b600160003373ffffffffffffffffffffffffffffffffffffffff1673ffffffffffffffffffffffffffffffffffffffff16815260200190815260200160002060405180608001604052808581526020018473ffffffffffffffffffffffffffffffffffffffff16815260200183815260200142815250908060018154018082558091505090600182039060005260206000209060040201600090919290919091506000820151816000015560208201518160010160006101000a81548173ffffffffffffffffffffffffffffffffffffffff021916908373ffffffffffffffffffffffffffffffffffffffff160217905550604082015181600201908051906020019061066c929190610711565b5060608201518160030155505050505050565b6000600354905090565b6000600160003373ffffffffffffffffffffffffffffffffffffffff1673ffffffffffffffffffffffffffffffffffffffff16815260200190815260200160002082815481106106d557fe5b906000526020600020906004020160010160009054906101000a900473ffffffffffffffffffffffffffffffffffffffff169050809050919050565b828054600181600116156101000203166002900490600052602060002090601f016020900481019282601f1061075257805160ff1916838001178555610780565b82800160010185558215610780579182015b8281111561077f578251825591602001919060010190610764565b5b50905061078d9190610791565b5090565b6107b391905b808211156107af576000816000905550600101610797565b5090565b9056fea265627a7a72315820bb8efaddd9bb33cd3a15b81ec23574c50b0b39f0790cb769fdbdedff53b492f864736f6c63430005100032",
  "source": "pragma solidity >=0.4.22 <0.9.0;\n\n\ncontract BifChain {\n\n    mapping(address=> uint256) uniqueId;\n    mapping(address => Item[]) List; \n    mapping(address=> bool) registered;\n    uint256 amountOfUser = 0;\n    address public owner;\n\n    constructor() public {\n        owner = msg.sender;\n        uniqueId[owner] = 0;\n    }\n\n    struct Item {\n        uint256 _bifNo;\n        address _address;\n        string _description;\n        uint256 _currentTimeStamp;\n       \n    }\n\n    function returnAmountOfUser() public view returns (uint256) {\n        return amountOfUser;\n    } \n\n    // function register() public returns(bool)\n    // {\n    //     require(!registered[msg.sender],\"Registered.\");\n    //     amountOfUser = amountOfUser+=1;\n    //     uniqueId[msg.sender] = amountOfUser;\n    //     registered[msg.sender] = true;\n    //     return registered[msg.sender];\n    // }\n\n    // function getUniqueId() public view returns(uint256) {\n    //     return uniqueId[msg.sender];\n    // }\n\n    function record(uint256 _x,address _y,string memory _z) public {\n\n        \n        List[msg.sender].push(Item(_x,_y,_z,block.timestamp));\n    }\n\n     function getRecordBifNoX(uint256 index) public view returns (uint256 _x){\n        \n        _x = List[msg.sender][index]._bifNo;\n        return _x;\n    }\n\n    function getRecordAddressY(uint256 index) public view returns (address _y){\n       \n        _y = List[msg.sender][index]._address;\n        return _y;\n    }\n\n    function getRecordDescriptionZ(uint256 index) public view returns (string memory _z){\n        \n        _z = List[msg.sender][index]._description;\n        return _z;\n    }\n\n    function getRecordTimeStampT(uint256 index) public view returns (uint256 _t){\n        \n        _t = List[msg.sender][index]._currentTimeStamp;\n        return _t;\n    }\n\n    \n\n    \n       \n\n\n\n\n}",
  "sourcePath": "/Users/ok/Desktop/Projects/bifchain/contracts/BifChain.sol",
  "compiler": {
    "name": "solc",
    "version": "0.5.16+commit.9c3226ce.Emscripten.clang"
  },
  "schemaVersion": "3.3.4",
  "updatedAt": "2021-03-17T00:06:13.922Z",
  "devdoc": {
    "methods": {}
  },
  "userdoc": {
    "methods": {}
  }
}